{
  "_format": "hh-sol-artifact-1",
  "contractName": "PhoenixThrone",
  "sourceName": "contracts/PhoenixThrone.sol",
  "abi": [
    {
      "inputs": [
        {
          "internalType": "uint8",
          "name": "got",
          "type": "uint8"
        },
        {
          "internalType": "uint8",
          "name": "expected",
          "type": "uint8"
        }
      ],
      "name": "InvalidEncryptedInput",
      "type": "error"
    },
    {
      "inputs": [
        {
          "internalType": "int32",
          "name": "value",
          "type": "int32"
        }
      ],
      "name": "SecurityZoneOutOfBounds",
      "type": "error"
    },
    {
      "anonymous": false,
      "inputs": [
        {
          "indexed": true,
          "internalType": "uint256",
          "name": "gameId",
          "type": "uint256"
        },
        {
          "indexed": true,
          "internalType": "address",
          "name": "player",
          "type": "address"
        }
      ],
      "name": "GameCreated",
      "type": "event"
    },
    {
      "anonymous": false,
      "inputs": [
        {
          "indexed": true,
          "internalType": "uint256",
          "name": "gameId",
          "type": "uint256"
        },
        {
          "indexed": false,
          "internalType": "enum PhoenixThrone.GameStatus",
          "name": "status",
          "type": "uint8"
        }
      ],
      "name": "GameOver",
      "type": "event"
    },
    {
      "anonymous": false,
      "inputs": [
        {
          "indexed": true,
          "internalType": "uint256",
          "name": "gameId",
          "type": "uint256"
        },
        {
          "indexed": false,
          "internalType": "uint16",
          "name": "turnNumber",
          "type": "uint16"
        },
        {
          "indexed": false,
          "internalType": "uint8[]",
          "name": "playerTargets",
          "type": "uint8[]"
        },
        {
          "indexed": false,
          "internalType": "uint8[]",
          "name": "playerResults",
          "type": "uint8[]"
        },
        {
          "indexed": false,
          "internalType": "uint8[]",
          "name": "aiTargets",
          "type": "uint8[]"
        },
        {
          "indexed": false,
          "internalType": "uint8[]",
          "name": "aiResults",
          "type": "uint8[]"
        }
      ],
      "name": "TurnExecuted",
      "type": "event"
    },
    {
      "anonymous": false,
      "inputs": [
        {
          "indexed": true,
          "internalType": "uint256",
          "name": "gameId",
          "type": "uint256"
        },
        {
          "indexed": false,
          "internalType": "bool",
          "name": "isPlayer",
          "type": "bool"
        },
        {
          "indexed": false,
          "internalType": "uint8",
          "name": "unitIndex",
          "type": "uint8"
        }
      ],
      "name": "UnitRelocated",
      "type": "event"
    },
    {
      "inputs": [],
      "name": "ELIMINATED",
      "outputs": [
        {
          "internalType": "uint8",
          "name": "",
          "type": "uint8"
        }
      ],
      "stateMutability": "view",
      "type": "function"
    },
    {
      "inputs": [
        {
          "components": [
            {
              "internalType": "uint256",
              "name": "ctHash",
              "type": "uint256"
            },
            {
              "internalType": "uint8",
              "name": "securityZone",
              "type": "uint8"
            },
            {
              "internalType": "uint8",
              "name": "utype",
              "type": "uint8"
            },
            {
              "internalType": "bytes",
              "name": "signature",
              "type": "bytes"
            }
          ],
          "internalType": "struct InEuint8",
          "name": "playerAssassin",
          "type": "tuple"
        },
        {
          "components": [
            {
              "internalType": "uint256",
              "name": "ctHash",
              "type": "uint256"
            },
            {
              "internalType": "uint8",
              "name": "securityZone",
              "type": "uint8"
            },
            {
              "internalType": "uint8",
              "name": "utype",
              "type": "uint8"
            },
            {
              "internalType": "bytes",
              "name": "signature",
              "type": "bytes"
            }
          ],
          "internalType": "struct InEuint8",
          "name": "playerGuard1",
          "type": "tuple"
        },
        {
          "components": [
            {
              "internalType": "uint256",
              "name": "ctHash",
              "type": "uint256"
            },
            {
              "internalType": "uint8",
              "name": "securityZone",
              "type": "uint8"
            },
            {
              "internalType": "uint8",
              "name": "utype",
              "type": "uint8"
            },
            {
              "internalType": "bytes",
              "name": "signature",
              "type": "bytes"
            }
          ],
          "internalType": "struct InEuint8",
          "name": "playerGuard2",
          "type": "tuple"
        },
        {
          "components": [
            {
              "internalType": "uint256",
              "name": "ctHash",
              "type": "uint256"
            },
            {
              "internalType": "uint8",
              "name": "securityZone",
              "type": "uint8"
            },
            {
              "internalType": "uint8",
              "name": "utype",
              "type": "uint8"
            },
            {
              "internalType": "bytes",
              "name": "signature",
              "type": "bytes"
            }
          ],
          "internalType": "struct InEuint8",
          "name": "playerDecoy1",
          "type": "tuple"
        },
        {
          "components": [
            {
              "internalType": "uint256",
              "name": "ctHash",
              "type": "uint256"
            },
            {
              "internalType": "uint8",
              "name": "securityZone",
              "type": "uint8"
            },
            {
              "internalType": "uint8",
              "name": "utype",
              "type": "uint8"
            },
            {
              "internalType": "bytes",
              "name": "signature",
              "type": "bytes"
            }
          ],
          "internalType": "struct InEuint8",
          "name": "playerDecoy2",
          "type": "tuple"
        },
        {
          "components": [
            {
              "internalType": "uint256",
              "name": "ctHash",
              "type": "uint256"
            },
            {
              "internalType": "uint8",
              "name": "securityZone",
              "type": "uint8"
            },
            {
              "internalType": "uint8",
              "name": "utype",
              "type": "uint8"
            },
            {
              "internalType": "bytes",
              "name": "signature",
              "type": "bytes"
            }
          ],
          "internalType": "struct InEuint8",
          "name": "aiAssassin",
          "type": "tuple"
        },
        {
          "components": [
            {
              "internalType": "uint256",
              "name": "ctHash",
              "type": "uint256"
            },
            {
              "internalType": "uint8",
              "name": "securityZone",
              "type": "uint8"
            },
            {
              "internalType": "uint8",
              "name": "utype",
              "type": "uint8"
            },
            {
              "internalType": "bytes",
              "name": "signature",
              "type": "bytes"
            }
          ],
          "internalType": "struct InEuint8",
          "name": "aiGuard1",
          "type": "tuple"
        },
        {
          "components": [
            {
              "internalType": "uint256",
              "name": "ctHash",
              "type": "uint256"
            },
            {
              "internalType": "uint8",
              "name": "securityZone",
              "type": "uint8"
            },
            {
              "internalType": "uint8",
              "name": "utype",
              "type": "uint8"
            },
            {
              "internalType": "bytes",
              "name": "signature",
              "type": "bytes"
            }
          ],
          "internalType": "struct InEuint8",
          "name": "aiGuard2",
          "type": "tuple"
        },
        {
          "components": [
            {
              "internalType": "uint256",
              "name": "ctHash",
              "type": "uint256"
            },
            {
              "internalType": "uint8",
              "name": "securityZone",
              "type": "uint8"
            },
            {
              "internalType": "uint8",
              "name": "utype",
              "type": "uint8"
            },
            {
              "internalType": "bytes",
              "name": "signature",
              "type": "bytes"
            }
          ],
          "internalType": "struct InEuint8",
          "name": "aiDecoy1",
          "type": "tuple"
        },
        {
          "components": [
            {
              "internalType": "uint256",
              "name": "ctHash",
              "type": "uint256"
            },
            {
              "internalType": "uint8",
              "name": "securityZone",
              "type": "uint8"
            },
            {
              "internalType": "uint8",
              "name": "utype",
              "type": "uint8"
            },
            {
              "internalType": "bytes",
              "name": "signature",
              "type": "bytes"
            }
          ],
          "internalType": "struct InEuint8",
          "name": "aiDecoy2",
          "type": "tuple"
        }
      ],
      "name": "createGame",
      "outputs": [
        {
          "internalType": "uint256",
          "name": "",
          "type": "uint256"
        }
      ],
      "stateMutability": "nonpayable",
      "type": "function"
    },
    {
      "inputs": [
        {
          "internalType": "uint256",
          "name": "gameId",
          "type": "uint256"
        },
        {
          "internalType": "uint8[]",
          "name": "playerTargets",
          "type": "uint8[]"
        },
        {
          "internalType": "uint8[]",
          "name": "playerResults",
          "type": "uint8[]"
        },
        {
          "internalType": "uint8[]",
          "name": "aiTargets",
          "type": "uint8[]"
        },
        {
          "internalType": "uint8[]",
          "name": "aiResults",
          "type": "uint8[]"
        }
      ],
      "name": "executeTurn",
      "outputs": [],
      "stateMutability": "nonpayable",
      "type": "function"
    },
    {
      "inputs": [
        {
          "internalType": "uint256",
          "name": "gameId",
          "type": "uint256"
        }
      ],
      "name": "forfeit",
      "outputs": [],
      "stateMutability": "nonpayable",
      "type": "function"
    },
    {
      "inputs": [
        {
          "internalType": "uint256",
          "name": "",
          "type": "uint256"
        }
      ],
      "name": "games",
      "outputs": [
        {
          "internalType": "address",
          "name": "player",
          "type": "address"
        },
        {
          "components": [
            {
              "internalType": "euint8",
              "name": "assassinPos",
              "type": "uint256"
            },
            {
              "internalType": "euint8",
              "name": "guard1Pos",
              "type": "uint256"
            },
            {
              "internalType": "euint8",
              "name": "guard2Pos",
              "type": "uint256"
            },
            {
              "internalType": "euint8",
              "name": "decoy1Pos",
              "type": "uint256"
            },
            {
              "internalType": "euint8",
              "name": "decoy2Pos",
              "type": "uint256"
            }
          ],
          "internalType": "struct PhoenixThrone.EncryptedBoard",
          "name": "playerBoard",
          "type": "tuple"
        },
        {
          "components": [
            {
              "internalType": "euint8",
              "name": "assassinPos",
              "type": "uint256"
            },
            {
              "internalType": "euint8",
              "name": "guard1Pos",
              "type": "uint256"
            },
            {
              "internalType": "euint8",
              "name": "guard2Pos",
              "type": "uint256"
            },
            {
              "internalType": "euint8",
              "name": "decoy1Pos",
              "type": "uint256"
            },
            {
              "internalType": "euint8",
              "name": "decoy2Pos",
              "type": "uint256"
            }
          ],
          "internalType": "struct PhoenixThrone.EncryptedBoard",
          "name": "aiBoard",
          "type": "tuple"
        },
        {
          "internalType": "enum PhoenixThrone.GameStatus",
          "name": "status",
          "type": "uint8"
        },
        {
          "internalType": "uint16",
          "name": "turnNumber",
          "type": "uint16"
        }
      ],
      "stateMutability": "view",
      "type": "function"
    },
    {
      "inputs": [],
      "name": "nextGameId",
      "outputs": [
        {
          "internalType": "uint256",
          "name": "",
          "type": "uint256"
        }
      ],
      "stateMutability": "view",
      "type": "function"
    },
    {
      "inputs": [
        {
          "internalType": "uint256",
          "name": "gameId",
          "type": "uint256"
        },
        {
          "internalType": "bool",
          "name": "isPlayer",
          "type": "bool"
        },
        {
          "internalType": "uint8",
          "name": "unitIndex",
          "type": "uint8"
        },
        {
          "components": [
            {
              "internalType": "uint256",
              "name": "ctHash",
              "type": "uint256"
            },
            {
              "internalType": "uint8",
              "name": "securityZone",
              "type": "uint8"
            },
            {
              "internalType": "uint8",
              "name": "utype",
              "type": "uint8"
            },
            {
              "internalType": "bytes",
              "name": "signature",
              "type": "bytes"
            }
          ],
          "internalType": "struct InEuint8",
          "name": "newPosition",
          "type": "tuple"
        }
      ],
      "name": "relocate",
      "outputs": [],
      "stateMutability": "nonpayable",
      "type": "function"
    }
  ],
  "bytecode": "0x6080604052348015600e575f80fd5b506126a18061001c5f395ff3fe608060405234801561000f575f80fd5b506004361061007b575f3560e01c8063b135bbb011610059578063b135bbb0146100ff578063b414e7481461011d578063d1f7c5c71461013b578063e5eac218146101575761007b565b8063117a5b901461007f5780633ed546ab146100b357806377bfedf6146100cf575b5f80fd5b610099600480360381019061009491906116a1565b610173565b6040516100aa959493929190611839565b60405180910390f35b6100cd60048036038101906100c891906116a1565b610254565b005b6100e960048036038101906100e49190611a98565b6103f6565b6040516100f69190611c98565b60405180910390f35b6101076105e4565b6040516101149190611c98565b60405180910390f35b6101256105e9565b6040516101329190611cc0565b60405180910390f35b61015560048036038101906101509190611d0e565b6105ee565b005b610171600480360381019061016c9190611deb565b61085b565b005b6001602052805f5260405f205f91509050805f015f9054906101000a900473ffffffffffffffffffffffffffffffffffffffff1690806001016040518060a00160405290815f820154815260200160018201548152602001600282015481526020016003820154815260200160048201548152505090806006016040518060a00160405290815f82015481526020016001820154815260200160028201548152602001600382015481526020016004820154815250509080600b015f9054906101000a900460ff169080600b0160019054906101000a900461ffff16905085565b803373ffffffffffffffffffffffffffffffffffffffff1660015f8381526020019081526020015f205f015f9054906101000a900473ffffffffffffffffffffffffffffffffffffffff1673ffffffffffffffffffffffffffffffffffffffff16146102f5576040517f08c379a00000000000000000000000000000000000000000000000000000000081526004016102ec90611f3b565b60405180910390fd5b815f6003811115610309576103086117aa565b5b60015f8381526020019081526020015f20600b015f9054906101000a900460ff16600381111561033c5761033b6117aa565b5b1461037c576040517f08c379a000000000000000000000000000000000000000000000000000000000815260040161037390611fa3565b60405180910390fd5b600360015f8581526020019081526020015f20600b015f6101000a81548160ff021916908360038111156103b3576103b26117aa565b5b0217905550827f132b564c6f96092065580fd28989d181dfbbfe4aa2fb7fb1eda8af68ba3073e060036040516103e99190611fc1565b60405180910390a2505050565b5f805f8081548092919061040990612007565b9190505590505f60015f8381526020019081526020015f20905033815f015f6101000a81548173ffffffffffffffffffffffffffffffffffffffff021916908373ffffffffffffffffffffffffffffffffffffffff1602179055505f81600b015f6101000a81548160ff0219169083600381111561048a576104896117aa565b5b0217905550600181600b0160016101000a81548161ffff021916908361ffff1602179055506104b88d610d2d565b816001015f01819055506104cb8c610d2d565b81600101600101819055506104df8b610d2d565b81600101600201819055506104f38a610d2d565b816001016003018190555061050789610d2d565b816001016004018190555061051b88610d2d565b816006015f018190555061052e87610d2d565b816006016001018190555061054286610d2d565b816006016002018190555061055685610d2d565b816006016003018190555061056a84610d2d565b816006016004018190555061058181600101610da0565b61058d81600601610da0565b3373ffffffffffffffffffffffffffffffffffffffff16827fc3e0f84839dc888c892a013d10c8f9d6dc05a21a879d0ce468ca558013e9121c60405160405180910390a381925050509a9950505050505050505050565b5f5481565b60ff81565b833373ffffffffffffffffffffffffffffffffffffffff1660015f8381526020019081526020015f205f015f9054906101000a900473ffffffffffffffffffffffffffffffffffffffff1673ffffffffffffffffffffffffffffffffffffffff161461068f576040517f08c379a000000000000000000000000000000000000000000000000000000000815260040161068690611f3b565b60405180910390fd5b845f60038111156106a3576106a26117aa565b5b60015f8381526020019081526020015f20600b015f9054906101000a900460ff1660038111156106d6576106d56117aa565b5b14610716576040517f08c379a000000000000000000000000000000000000000000000000000000000815260040161070d90611fa3565b60405180910390fd5b60058460ff161061075c576040517f08c379a000000000000000000000000000000000000000000000000000000000815260040161075390612098565b60405180910390fd5b5f60015f8881526020019081526020015f2090505f8661077f5781600601610784565b816001015b90505f61079086610d2d565b90505f8760ff16036107a95780825f018190555061080d565b60018760ff16036107c25780826001018190555061080c565b60028760ff16036107db5780826002018190555061080b565b60038760ff16036107f45780826003018190555061080a565b60048760ff1603610809578082600401819055505b5b5b5b5b61081681610de3565b887f298350d607c83ff9bef83f5722f2e738804ab7d4ac53d86bfc369a1e22b4552389896040516108489291906120c5565b60405180910390a2505050505050505050565b883373ffffffffffffffffffffffffffffffffffffffff1660015f8381526020019081526020015f205f015f9054906101000a900473ffffffffffffffffffffffffffffffffffffffff1673ffffffffffffffffffffffffffffffffffffffff16146108fc576040517f08c379a00000000000000000000000000000000000000000000000000000000081526004016108f390611f3b565b60405180910390fd5b895f60038111156109105761090f6117aa565b5b60015f8381526020019081526020015f20600b015f9054906101000a900460ff166003811115610943576109426117aa565b5b14610983576040517f08c379a000000000000000000000000000000000000000000000000000000000815260040161097a90611fa3565b60405180910390fd5b878790508a8a9050146109cb576040517f08c379a00000000000000000000000000000000000000000000000000000000081526004016109c290612136565b60405180910390fd5b838390508686905014610a13576040517f08c379a0000000000000000000000000000000000000000000000000000000008152600401610a0a9061219e565b60405180910390fd5b5f60015f8d81526020019081526020015f2090505f5b8b8b9050811015610a9d57610a90826006018d8d84818110610a4e57610a4d6121bc565b5b9050602002016020810190610a6391906121e9565b8c8c85818110610a7657610a756121bc565b5b9050602002016020810190610a8b91906121e9565b610e62565b8080600101915050610a29565b505f5b87879050811015610b1457610b0782600101898984818110610ac557610ac46121bc565b5b9050602002016020810190610ada91906121e9565b888885818110610aed57610aec6121bc565b5b9050602002016020810190610b0291906121e9565b610e62565b8080600101915050610aa0565b508b7fb1e19883360d47e1f313801f0e27e980d32169483f7b5c50a785f76665d4269e82600b0160019054906101000a900461ffff168d8d8d8d8d8d8d8d604051610b67999897969594939291906122d0565b60405180910390a25f5b89899050811015610c275760038a8a83818110610b9157610b906121bc565b5b9050602002016020810190610ba691906121e9565b60ff1603610c1a57600182600b015f6101000a81548160ff02191690836003811115610bd557610bd46117aa565b5b02179055508c7f132b564c6f96092065580fd28989d181dfbbfe4aa2fb7fb1eda8af68ba3073e06001604051610c0b9190611fc1565b60405180910390a25050610d20565b8080600101915050610b71565b505f5b85859050811015610ce0576003868683818110610c4a57610c496121bc565b5b9050602002016020810190610c5f91906121e9565b60ff1603610cd357600282600b015f6101000a81548160ff02191690836003811115610c8e57610c8d6117aa565b5b02179055508c7f132b564c6f96092065580fd28989d181dfbbfe4aa2fb7fb1eda8af68ba3073e06002604051610cc49190611fc1565b60405180910390a25050610d20565b8080600101915050610c2a565b5080600b01600181819054906101000a900461ffff1680929190610d0390612345565b91906101000a81548161ffff021916908361ffff16021790555050505b5050505050505050505050565b5f80600290508060ff16836040015160ff1614610d87578260400151816040517f67cf3071000000000000000000000000000000000000000000000000000000008152600401610d7e92919061236e565b60405180910390fd5b610d98610d9384610f91565b610fd3565b915050919050565b610dac815f0154610de3565b610db98160010154610de3565b610dc68160020154610de3565b610dd38160030154610de3565b610de08160040154610de3565b50565b73ea30c4b8b44078bbf8a6ef5b9f1ec1626c7848d973ffffffffffffffffffffffffffffffffffffffff166365d0509c82306040518363ffffffff1660e01b8152600401610e32929190612395565b5f604051808303815f87803b158015610e49575f80fd5b505af1158015610e5b573d5f803e3d5ffd5b5050505050565b5f610e6f8360ff1661106a565b90505f610e7e60ff801661106a565b90505f610e8e865f01548461107c565b90505f610e9f87600101548561107c565b90505f610eb088600201548661107c565b90505f610ec189600301548761107c565b90505f610ed28a600401548861107c565b9050610ee285878c5f01546110c5565b8a5f0181905550610ef884878c600101546110c5565b8a60010181905550610f0f83878c600201546110c5565b8a60020181905550610f2682878c600301546110c5565b8a60030181905550610f3d81878c600401546110c5565b8a60040181905550610f518a5f0154610de3565b610f5e8a60010154610de3565b610f6b8a60020154610de3565b610f788a60030154610de3565b610f858a60040154610de3565b50505050505050505050565b610f99611632565b6040518060800160405280835f01518152602001836020015160ff168152602001600260ff16815260200183606001518152509050919050565b5f73ea30c4b8b44078bbf8a6ef5b9f1ec1626c7848d973ffffffffffffffffffffffffffffffffffffffff166327f9c76283336040518363ffffffff1660e01b815260040161102392919061248b565b6020604051808303815f875af115801561103f573d5f803e3d5ffd5b505050506040513d601f19601f8201168201806040525081019061106391906124cd565b9050919050565b5f611075825f611127565b9050919050565b5f61108683611141565b611096576110935f61106a565b92505b61109f82611141565b6110af576110ac5f61106a565b91505b6110bd600284846018611152565b905092915050565b5f6110cf84611241565b6110df576110dc5f611252565b93505b6110e883611141565b6110f8576110f55f61106a565b92505b61110182611141565b6111115761110e5f61106a565b91505b61111e6002858585611264565b90509392505050565b5f8061113584600285611355565b90508091505092915050565b5f61114b82611450565b9050919050565b5f73ea30c4b8b44078bbf8a6ef5b9f1ec1626c7848d973ffffffffffffffffffffffffffffffffffffffff16631888debd868461118f888861145c565b5f67ffffffffffffffff8111156111a9576111a86118a1565b5b6040519080825280602002602001820160405280156111d75781602001602082028036833780820191505090505b506040518563ffffffff1660e01b81526004016111f794939291906125e6565b6020604051808303815f875af1158015611213573d5f803e3d5ffd5b505050506040513d601f19601f8201168201806040525081019061123791906124cd565b9050949350505050565b5f61124b82611450565b9050919050565b5f61125d825f6114f6565b9050919050565b5f73ea30c4b8b44078bbf8a6ef5b9f1ec1626c7848d973ffffffffffffffffffffffffffffffffffffffff16631888debd8660046112a388888861151f565b5f67ffffffffffffffff8111156112bd576112bc6118a1565b5b6040519080825280602002602001820160405280156112eb5781602001602082028036833780820191505090505b506040518563ffffffff1660e01b815260040161130b94939291906125e6565b6020604051808303815f875af1158015611327573d5f803e3d5ffd5b505050506040513d601f19601f8201168201806040525081019061134b91906124cd565b9050949350505050565b5f73ea30c4b8b44078bbf8a6ef5b9f1ec1626c7848d973ffffffffffffffffffffffffffffffffffffffff16631888debd84601a5f67ffffffffffffffff8111156113a3576113a26118a1565b5b6040519080825280602002602001820160405280156113d15781602001602082028036833780820191505090505b506113e8898960ff166113e38a6115db565b61151f565b6040518563ffffffff1660e01b815260040161140794939291906125e6565b6020604051808303815f875af1158015611423573d5f803e3d5ffd5b505050506040513d601f19601f8201168201806040525081019061144791906124cd565b90509392505050565b5f808214159050919050565b60605f600267ffffffffffffffff81111561147a576114796118a1565b5b6040519080825280602002602001820160405280156114a85781602001602082028036833780820191505090505b50905083815f815181106114bf576114be6121bc565b5b60200260200101818152505082816001815181106114e0576114df6121bc565b5b6020026020010181815250508091505092915050565b5f805f9050831561150657600190505b5f611512825f86611355565b9050809250505092915050565b60605f600367ffffffffffffffff81111561153d5761153c6118a1565b5b60405190808252806020026020018201604052801561156b5781602001602082028036833780820191505090505b50905084815f81518110611582576115816121bc565b5b60200260200101818152505083816001815181106115a3576115a26121bc565b5b60200260200101818152505082816002815181106115c4576115c36121bc565b5b602002602001018181525050809150509392505050565b5f808260030b121561162457816040517f8f568bf800000000000000000000000000000000000000000000000000000000815260040161161b9190612652565b60405180910390fd5b8163ffffffff169050919050565b60405180608001604052805f81526020015f60ff1681526020015f60ff168152602001606081525090565b5f604051905090565b5f80fd5b5f80fd5b5f819050919050565b6116808161166e565b811461168a575f80fd5b50565b5f8135905061169b81611677565b92915050565b5f602082840312156116b6576116b5611666565b5b5f6116c38482850161168d565b91505092915050565b5f73ffffffffffffffffffffffffffffffffffffffff82169050919050565b5f6116f5826116cc565b9050919050565b611705816116eb565b82525050565b5f819050919050565b5f61172e6117296117248461166e565b61170b565b61166e565b9050919050565b61173e81611714565b82525050565b60a082015f8201516117585f850182611735565b50602082015161176b6020850182611735565b50604082015161177e6040850182611735565b5060608201516117916060850182611735565b5060808201516117a46080850182611735565b50505050565b7f4e487b71000000000000000000000000000000000000000000000000000000005f52602160045260245ffd5b600481106117e8576117e76117aa565b5b50565b5f8190506117f8826117d7565b919050565b5f611807826117eb565b9050919050565b611817816117fd565b82525050565b5f61ffff82169050919050565b6118338161181d565b82525050565b5f6101a08201905061184d5f8301886116fc565b61185a6020830187611744565b61186760c0830186611744565b61187561016083018561180e565b61188361018083018461182a565b9695505050505050565b5f80fd5b5f601f19601f8301169050919050565b7f4e487b71000000000000000000000000000000000000000000000000000000005f52604160045260245ffd5b6118d782611891565b810181811067ffffffffffffffff821117156118f6576118f56118a1565b5b80604052505050565b5f61190861165d565b905061191482826118ce565b919050565b5f80fd5b5f60ff82169050919050565b6119328161191d565b811461193c575f80fd5b50565b5f8135905061194d81611929565b92915050565b5f80fd5b5f80fd5b5f67ffffffffffffffff821115611975576119746118a1565b5b61197e82611891565b9050602081019050919050565b828183375f83830152505050565b5f6119ab6119a68461195b565b6118ff565b9050828152602081018484840111156119c7576119c6611957565b5b6119d284828561198b565b509392505050565b5f82601f8301126119ee576119ed611953565b5b81356119fe848260208601611999565b91505092915050565b5f60808284031215611a1c57611a1b61188d565b5b611a2660806118ff565b90505f611a358482850161168d565b5f830152506020611a488482850161193f565b6020830152506040611a5c8482850161193f565b604083015250606082013567ffffffffffffffff811115611a8057611a7f611919565b5b611a8c848285016119da565b60608301525092915050565b5f805f805f805f805f806101408b8d031215611ab757611ab6611666565b5b5f8b013567ffffffffffffffff811115611ad457611ad361166a565b5b611ae08d828e01611a07565b9a505060208b013567ffffffffffffffff811115611b0157611b0061166a565b5b611b0d8d828e01611a07565b99505060408b013567ffffffffffffffff811115611b2e57611b2d61166a565b5b611b3a8d828e01611a07565b98505060608b013567ffffffffffffffff811115611b5b57611b5a61166a565b5b611b678d828e01611a07565b97505060808b013567ffffffffffffffff811115611b8857611b8761166a565b5b611b948d828e01611a07565b96505060a08b013567ffffffffffffffff811115611bb557611bb461166a565b5b611bc18d828e01611a07565b95505060c08b013567ffffffffffffffff811115611be257611be161166a565b5b611bee8d828e01611a07565b94505060e08b013567ffffffffffffffff811115611c0f57611c0e61166a565b5b611c1b8d828e01611a07565b9350506101008b013567ffffffffffffffff811115611c3d57611c3c61166a565b5b611c498d828e01611a07565b9250506101208b013567ffffffffffffffff811115611c6b57611c6a61166a565b5b611c778d828e01611a07565b9150509295989b9194979a5092959850565b611c928161166e565b82525050565b5f602082019050611cab5f830184611c89565b92915050565b611cba8161191d565b82525050565b5f602082019050611cd35f830184611cb1565b92915050565b5f8115159050919050565b611ced81611cd9565b8114611cf7575f80fd5b50565b5f81359050611d0881611ce4565b92915050565b5f805f8060808587031215611d2657611d25611666565b5b5f611d338782880161168d565b9450506020611d4487828801611cfa565b9350506040611d558782880161193f565b925050606085013567ffffffffffffffff811115611d7657611d7561166a565b5b611d8287828801611a07565b91505092959194509250565b5f80fd5b5f80fd5b5f8083601f840112611dab57611daa611953565b5b8235905067ffffffffffffffff811115611dc857611dc7611d8e565b5b602083019150836020820283011115611de457611de3611d92565b5b9250929050565b5f805f805f805f805f60a08a8c031215611e0857611e07611666565b5b5f611e158c828d0161168d565b99505060208a013567ffffffffffffffff811115611e3657611e3561166a565b5b611e428c828d01611d96565b985098505060408a013567ffffffffffffffff811115611e6557611e6461166a565b5b611e718c828d01611d96565b965096505060608a013567ffffffffffffffff811115611e9457611e9361166a565b5b611ea08c828d01611d96565b945094505060808a013567ffffffffffffffff811115611ec357611ec261166a565b5b611ecf8c828d01611d96565b92509250509295985092959850929598565b5f82825260208201905092915050565b7f4e6f74207468652067616d6520706c61796572000000000000000000000000005f82015250565b5f611f25601383611ee1565b9150611f3082611ef1565b602082019050919050565b5f6020820190508181035f830152611f5281611f19565b9050919050565b7f47616d65206e6f742061637469766500000000000000000000000000000000005f82015250565b5f611f8d600f83611ee1565b9150611f9882611f59565b602082019050919050565b5f6020820190508181035f830152611fba81611f81565b9050919050565b5f602082019050611fd45f83018461180e565b92915050565b7f4e487b71000000000000000000000000000000000000000000000000000000005f52601160045260245ffd5b5f6120118261166e565b91507fffffffffffffffffffffffffffffffffffffffffffffffffffffffffffffffff820361204357612042611fda565b5b600182019050919050565b7f496e76616c696420756e697420696e64657800000000000000000000000000005f82015250565b5f612082601283611ee1565b915061208d8261204e565b602082019050919050565b5f6020820190508181035f8301526120af81612076565b9050919050565b6120bf81611cd9565b82525050565b5f6040820190506120d85f8301856120b6565b6120e56020830184611cb1565b9392505050565b7f506c6179657220617272617973206d69736d61746368000000000000000000005f82015250565b5f612120601683611ee1565b915061212b826120ec565b602082019050919050565b5f6020820190508181035f83015261214d81612114565b9050919050565b7f414920617272617973206d69736d6174636800000000000000000000000000005f82015250565b5f612188601283611ee1565b915061219382612154565b602082019050919050565b5f6020820190508181035f8301526121b58161217c565b9050919050565b7f4e487b71000000000000000000000000000000000000000000000000000000005f52603260045260245ffd5b5f602082840312156121fe576121fd611666565b5b5f61220b8482850161193f565b91505092915050565b5f82825260208201905092915050565b5f819050919050565b6122368161191d565b82525050565b5f612247838361222d565b60208301905092915050565b5f612261602084018461193f565b905092915050565b5f602082019050919050565b5f6122808385612214565b935061228b82612224565b805f5b858110156122c3576122a08284612253565b6122aa888261223c565b97506122b583612269565b92505060018101905061228e565b5085925050509392505050565b5f60a0820190506122e35f83018c61182a565b81810360208301526122f6818a8c612275565b9050818103604083015261230b81888a612275565b90508181036060830152612320818688612275565b90508181036080830152612335818486612275565b90509a9950505050505050505050565b5f61234f8261181d565b915061ffff820361236357612362611fda565b5b600182019050919050565b5f6040820190506123815f830185611cb1565b61238e6020830184611cb1565b9392505050565b5f6040820190506123a85f830185611c89565b6123b560208301846116fc565b9392505050565b6123c58161166e565b82525050565b5f81519050919050565b5f82825260208201905092915050565b8281835e5f83830152505050565b5f6123fd826123cb565b61240781856123d5565b93506124178185602086016123e5565b61242081611891565b840191505092915050565b5f608083015f8301516124405f8601826123bc565b506020830151612453602086018261222d565b506040830151612466604086018261222d565b506060830151848203606086015261247e82826123f3565b9150508091505092915050565b5f6040820190508181035f8301526124a3818561242b565b90506124b260208301846116fc565b9392505050565b5f815190506124c781611677565b92915050565b5f602082840312156124e2576124e1611666565b5b5f6124ef848285016124b9565b91505092915050565b60208110612509576125086117aa565b5b50565b5f819050612519826124f8565b919050565b5f6125288261250c565b9050919050565b6125388161251e565b82525050565b5f81519050919050565b5f82825260208201905092915050565b5f819050602082019050919050565b5f61257283836123bc565b60208301905092915050565b5f602082019050919050565b5f6125948261253e565b61259e8185612548565b93506125a983612558565b805f5b838110156125d95781516125c08882612567565b97506125cb8361257e565b9250506001810190506125ac565b5085935050505092915050565b5f6080820190506125f95f830187611cb1565b612606602083018661252f565b8181036040830152612618818561258a565b9050818103606083015261262c818461258a565b905095945050505050565b5f8160030b9050919050565b61264c81612637565b82525050565b5f6020820190506126655f830184612643565b9291505056fea264697066735822122052e68822f84c842c056141c35632122b68fae000b8172d8ac0a0824b5700d6b364736f6c63430008190033",
  "linkReferences": {},
  "deployedLinkReferences": {}
}